{
  "contractName": "HelloBlockchain",
  "abi": [
    {
      "constant": true,
      "inputs": [],
      "name": "sayHi",
      "outputs": [
        {
          "internalType": "string",
          "name": "",
          "type": "string"
        }
      ],
      "payable": false,
      "stateMutability": "pure",
      "type": "function"
    }
  ],
  "bytecode": "0x608060405234801561001057600080fd5b5061011d806100206000396000f3fe6080604052348015600f57600080fd5b506004361060285760003560e01c80630c49c36c14602d575b600080fd5b603360ab565b6040518080602001828103825283818151815260200191508051906020019080838360005b8381101560715780820151818401526020810190506058565b50505050905090810190601f168015609d5780820380516001836020036101000a031916815260200191505b509250505060405180910390f35b60606040518060400160405280601381526020017f2148656c6c6f2c20626c6f636b636861696e210000000000000000000000000081525090509056fea265627a7a723158208ccc193e07d5806bf30181eda96ec98b053a2b174021feb7ab5fd2d91f8eb8b364736f6c63430005100032",
  "source": "// SPDX-License-Identifier: GPL-3.0\r\n\r\npragma solidity >=0.4.22 <0.9.0;\r\n\r\ncontract HelloBlockchain {\r\n    \r\n    function sayHi() public pure returns (string memory) {\r\n        return \"!Hello, blockchain!\";\r\n    }\r\n\r\n}",
  "sourcePath": "/mnt/d/Codigo/web-3.0/hello-blockchain/contracts/hello-blockchain.sol",
  "compiler": {
    "name": "solc",
    "version": "0.5.16+commit.9c3226ce.Emscripten.clang"
  },
  "schemaVersion": "3.4.3",
  "updatedAt": "2021-11-11T20:55:53.921Z",
  "networkType": "ethereum",
  "devdoc": {
    "methods": {}
  },
  "userdoc": {
    "methods": {}
  }
}